:1000000010C015C014C013C012C011C010C00FC062
:100010000EC00DC00CC00BC00AC009C008C007C08C
:1000200006C011241FBECFEDCDBF02D0BDC0E8CFAA
:10003000BF92CF92DF92EF92FF920F931F93CF93D5
:10004000DF93B8988AB38F608ABB81E088BBE0E019
:1000500040E0C6E7D6E122E0C22E08EA11E694E0CD
:10006000D92EF8E0BB24B39484E0E82E89E2F82E80
:1000700024C0EF5FF9F44F5F842F63E062D09923CF
:1000800011F0CBBA13C0242F30E0C901019663E010
:1000900070E063D0892B11F0DBBA08C0C901029669
:1000A00063E070E05AD0892B09F0FBBBCE010197C9
:1000B000F1F71BBACE010197F1F7B099DACF03C07F
:1000C000CE010197F1F7B09BFBCF20E0CBBAC8017E
:1000D0000197F1F7DBBAC8010197F1F7FBBBC80143
:1000E0000197F1F71BBAC8010197F1F72F5F243090
:1000F00069F7BBBA20E08BB38E608BBBC701019759
:10010000F1F78BB3817F8BBBC7010197F1F7B099F2
:1001100011C020E08BB38E608BBBCE010197F1F74D
:100120008BB3817F8BBBCE010197F1F72F5F253019
:1001300089F720E02F5F2A32F0F21BBAE0E040E0BE
:10014000BCCF991B79E004C0991F961708F0961B45
:10015000881F7A95C9F78095089597FB092E072681
:100160000AD077FD04D00CD006D000201AF4709588
:1001700061957F4F0895F6F7909581959F4F08956B
:10018000AA1BBB1B51E107C0AA1FBB1FA617B707BD
:1001900010F0A61BB70B881F991F5A95A9F78095D9
:0C01A0009095BC01CD010895F894FFCFAC
:00000001FF
